:100000000C9434000C9449000C9449000C94490061
:100010000C9449000C9449000C9449000C9449003C
:100020000C9449000C9449000C9449000C9449002C
:100030000C9449000C9449000C9449000C9449001C
:100040000C9449000C9449000C9449000C9449000C
:100050000C9449000C9449000C9449000C944900FC
:100060000C9449000C94490011241FBECFEFD8E036
:10007000DEBFCDBF16E0A0E0B1E0E8EBF2E002C0E9
:1000800005900D92A433B107D9F70E949F000C94FC
:100090005A010C9400001092C50080E18093C400C6
:1000A000E0ECF0E080818260808388E08093C10092
:1000B00086E08093C20008959091C00095FFFCCF28
:1000C0008093C6000895CF93DF93EC01899181114D
:1000D00003C0DF91CF9108950E945C00F7CFCF93CA
:1000E000DF93CDB7DEB729970FB6F894DEBF0FBE0A
:1000F000CDBF462F572FBC011986DE011996FE0190
:100100003196CF01242F2F702A30B8F4205D2E9322
:1001100024E076956795579547952A95D1F7AE17C0
:10012000BF0781F70E94630029960FB6F894DEBFDF
:100130000FBECDBFDF91CF910895295CE8CF0E941B
:100140004B002FEF39E688E1215030408040E1F745
:1001500000C0000080E091E00E9463008EE291E028
:100160000E946300259A000080E090E0DC01882F67
:10017000882F88E491E00E9463008CE691E00E9461
:10018000630085E090E030E225B1232725B901978F
:10019000D9F78BE991E00E94630080ED91E00E9425
:1001A000630089EE91E00E94630089E092E00E9482
:1001B000630083E492E00E9463008CE692E00E9478
:1001C000630087E892E00E9463008BEA92E00E945D
:1001D00063008BEC92E00E9463008AEE92E00E9442
:1001E000630086E193E00E94630084E493E00E9450
:1001F00063008DE593E00E94630086E993E00E942E
:10020000630087EB93E00E94630084ED93E00E941B
:10021000630089E094E00E9463008CE294E00E9415
:1002200063008CE494E00E94630087E694E00E94FF
:10023000630081E894E00E9463008FEA94E00E94EA
:10024000630086ED94E00E94630089EF94E00E94D1
:1002500063008BE195E00E94630086E495E00E94D4
:1002600063008BE695E00E9463008EE895E00E94B3
:10027000630085EB95E00E9463008AED95E00E94A3
:10028000630081E096E00E94630089E196E00E94AD
:1002900063008BE195E00E94630020E285B1822734
:1002A00085B980E090E000000196803533EC93073B
:0802B000D1F7F4CFF894FFCF61
:1002B8000D0A3D3D3D203939782D41726475696ECE
:1002C8006F2041546D656761333238502042656E46
:1002D80063686D61726B73203D3D3D0D0A00465F9A
:1002E800435055203D2031364D487A202873746F8D
:1002F800636B290D0A0D0A0042656E636820313A66
:100308002050696E20746F67676C65202864697275
:1003180065637420504F5254290D0A002020546FF1
:1003280067676C696E6720504235206174206D6183
:100338007820737065656420666F72207E31207343
:1003480065636F6E642E2E2E0D0A00202052657391
:10035800756C743A207E38204D487A20746F676730
:100368006C652072617465202832206379636C653E
:10037800732070657220746F67676C65290D0A00B9
:1003880020204F6E6520746F67676C653A203132A4
:1003980035206E730D0A0D0A0042656E63682032BF
:1003A8003A206469676974616C57726974652829B1
:1003B8002073706565640D0A00202064696769749C
:1003C800616C57726974652075736573207E353664
:1003D800206379636C657320286272616E63686953
:1003E8006E672C2070696E206D617070696E672968
:1003F8000D0A00202044697265637420706F72745E
:100408003A2032206379636C6573203D2032387856
:10041800206661737465720D0A0D0A0042656E6389
:100428006820333A2055415254207468726F7567BA
:10043800687075740D0A0020203131353230302053
:1004480062617564203D207E31312C353230206266
:10045800797465732F7365630D0A00202043505526
:100468002074696D652070657220627974653A2020
:100478007E38372075730D0A0D0A0042656E636871
:1004880020343A20493243207370656564206573CF
:1004980074696D617465730D0A0020204861726487
:1004A80077617265205457493A207E343030206B8A
:1004B800487A2028322E35207573207065722062A4
:1004C8006974290D0A00202042697462616E6720F0
:1004D8002866617374293A207E3530206B487A206B
:1004E8002832302075732070657220626974290D76
:1004F8000A0D0A0042656E636820353A204144437C
:1005080020726561642074696D650D0A00202053AE
:10051800696E676C6520636F6E76657273696F6E5E
:100528003A20313034207573202831332078204127
:10053800444320636C6F636B204020313235206B5D
:10054800487A290D0A0020204D61782073616D706A
:100558006C6520726174653A207E392C3630302003
:10056800487A0D0A0D0A0042656E636820363A2003
:10057800496E74657272757074206C6174656E630F
:10058800790D0A0020204861726477617265206CD9
:100598006174656E63793A207E35206379636C6592
:1005A80073202870726F74656374205043202B2069
:1005B800666C616773290D0A002020536F66747793
:1005C8006172652049535220656E7472793A207EB3
:1005D8003135206379636C65730D0A002020546FF0
:1005E80074616C3A207E312E323520757320617427
:1005F800203136204D487A0D0A0D0A0042656E6397
:100608006820373A205352414D20726561642F7734
:10061800726974650D0A0020205352414D206163B0
:10062800636573733A2032206379636C65730D0ACE
:100638000020205468656F7265746963616C20627C
:10064800616E6477696474683A2038204D422F736C
:10065800206174203136204D487A0D0A0D0A004277
:10066800656E636820383A20466C6173682028708C
:10067800726F6772616D206D656D6F727929207276
:100688006561640D0A002020466C61736820284C5F
:10069800504D293A2033206379636C657320706567
:1006A8007220627974650D0A002020466C617368B7
:1006B800207468726F7567687075743A207E352E7D
:1006C80033204D422F730D0A0D0A003D3D3D3D3D3F
:1006D8003D3D3D3D3D3D3D3D3D3D3D3D3D3D3D3D42
:1006E8003D3D3D3D3D3D3D3D3D3D3D3D3D3D3D3D32
:1006F8003D3D3D0D0A0053756D6D6172793A20419B
:10070800546D656761333238502073746F636B20A2
:10071800283136204D487A290D0A00202050696E6C
:1007280020746F67676C653A2020313235206E730C
:10073800202020202838204D487A290D0A00202022
:100748006469676974616C57726974653A20332EFD
:1007580035207573202020283536206379636C6531
:1007680073290D0A00202041444320726561643AD0
:100778002020202031303420757320202020287E2E
:100788003130206B487A290D0A0020204953522025
:100798006C6174656E63793A20312E323520757339
:1007A8002020287E3230206379636C6573290D0A16
:1007B8000020205352414D2062773A2020202020EB
:1007C80038204D422F730D0A002020466C61736853
:1007D8002062773A20202020352E33204D422F7377
:0407E8000D0A0000F6
:00000001FF
