:100000000C9434000C9449000C9449000C94490061
:100010000C9449000C9449000C9449000C9449003C
:100020000C9449000C9449000C9449000C9449002C
:100030000C9449000C9449000C9449000C9449001C
:100040000C9449000C9449000C9449000C9449000C
:100050000C9449000C9449000C9449000C944900FC
:100060000C9449000C94490011241FBECFEFD8E036
:10007000DEBFCDBF15E0A0E0B1E0E8E3F4E002C0F0
:1000800005900D92A037B107D9F70E947C010C941E
:100090001A020C94000087FD2C9A87FF2C982B9A4B
:1000A0002B9886FD2C9A86FF2C982B9A2B9885FDF1
:1000B0002C9A85FF2C982B9A2B9884FD2C9A84FFE0
:1000C0002C982B9A2B9883FD2C9A83FF2C982B9A93
:1000D0002B9882FD2C9A82FF2C982B9A2B9881FDCD
:1000E0002C9A81FF2C982B9A2B9880FD2C9A80FFBC
:1000F0002C982B9A2B9808951092C50080E180933C
:10010000C400E0ECF0E080818260808388E080932E
:10011000C10086E08093C20008959091C00095FFD1
:10012000FCCF8093C6000895CF93DF93EC018991B3
:10013000811103C0DF91CF9108950E948D00F7CF08
:100140004F925F926F927F92AF92BF92CF92DF9267
:10015000EF92FF920F931F93CF93DF93CDB7DEB74C
:100160002C970FB6F894DEBF0FBECDBF6B017C019C
:100170001C86C114D104E104F104B9F480E32C9687
:100180000FB6F894DEBF0FBECDBFDF91CF911F91A8
:100190000F91FF90EF90DF90CF90BF90AF907F9046
:1001A0006F905F904F900C948D005E018CE0A80ED4
:1001B000B11C0AE010E08AE0482E512C612C712C11
:1001C000C701B601A30192010E94F8010150110973
:1001D000605DF50162935F01D701C60169017A0193
:1001E0000A97A105B10518F00F3F100749F7CE0196
:1001F000800F911F02960E9494002C960FB6F894DF
:10020000DEBF0FBECDBFDF91CF911F910F91FF9049
:10021000EF90DF90CF90BF90AF907F906F905F9006
:100220004F90089528E030E090E8482F4923411589
:1002300049F02C9A2B9A00002B989695215030402B
:10024000A1F708952C98F6CF87FF2FC02C9A2B9AF0
:1002500000002B9886FF2BC02C9A2B9A00002B981D
:1002600085FF27C02C9A2B9A00002B9884FF23C06F
:100270002C9A2B9A00002B9883FF1FC02C9A2B9A44
:1002800000002B9882FF1BC02C9A2B9A00002B9801
:1002900081FF17C02C9A2B9A00002B9880FF13C067
:1002A0002C9A2B9A00002B9808952C98D0CF2C983C
:1002B000D4CF2C98D8CF2C98DCCF2C98E0CF2C988A
:1002C000E4CF2C98E8CF2C98ECCFCF93DF93EC01C0
:1002D0002A988AEAFE01099585E5FE0109958FEFC6
:1002E000FE01099580E0FE01099589E9FE01099565
:1002F0002A9ADF91CF9108950E947C002FEF89E622
:1003000098E1215080409040E1F700C0000084B1A6
:100310008C6184B92A9A80E091E00E9494008FE277
:1003200091E00E94940085E491E00E94940087E6A9
:1003300091E00E9494008CE891E00E94940088EC87
:1003400091E00E94940083E092E00E9494008EE38A
:1003500092E00E94940089E792E00E94940084EB6E
:1003600092E00E94940081EF92E00E94940080E16C
:1003700094E00E94940081E393E00E94940083E75C
:1003800093E00E9494008AEA93E00E9494008FED2B
:1003900093E00E94940083E194E00E94940086E23E
:1003A00094E00E94940083E694E00E9494008BE91C
:1003B00094E00E94940082ED94E00E94940086E014
:1003C00095E00E94940085E495E00E949400C0E2CC
:1003D00085B18C2785B98BE490E00E94650180E0AF
:1003E00090E000000196803523EC9207D1F7F0CF22
:1003F000A1E21A2EAA1BBB1BFD010DC0AA1FBB1F29
:10040000EE1FFF1FA217B307E407F50720F0A21B9A
:10041000B30BE40BF50B661F771F881F991F1A9407
:1004200069F760957095809590959B01AC01BD0131
:08043000CF010895F894FFCFFD
:100438000D0A3D3D3D203939782D41726475696E4C
:100448006F2042697462616E67205350492053706F
:100458006565642054657374203D3D3D0D0A004177
:10046800546D656761333238502040203136204D55
:10047800487A0D0A0050696E733A2053434B3D5039
:1004880042332C204D4F53493D5042342C20435386
:100498003D5042320D0A0053636F7065205042335D
:1004A800202853434B2920666F722061637475615D
:1004B8006C2073706565640D0A0D0A004D657468DB
:1004C8006F64202020202020202020202020202091
:1004D800204379636C65732F626974202053434B02
:1004E8002066726571202020207673206461746113
:1004F80073686565740D0A002D2D2D2D2D2D202076
:10050800202020202020202020202020202D2D2DBC
:100518002D2D2D2D2D2D2D20202D2D2D2D2D2D2D1D
:100528002D202020202D2D2D2D2D2D2D2D2D2D2D27
:100538000D0A004E6F726D616C2043206C6F6F70F6
:100548002020202020202020207E31322020202022
:100558002020202020312E33204D487A20202020B2
:10056800313625206F6620737065630D0A00556E5D
:10057800726F6C6C6564204320202020202020208E
:10058800202020207E3620202020202020202020EF
:10059800322E37204D487A20202020333325206FF3
:1005A8006620737065630D0A00496E6C696E65207C
:1005B80061736D2020202020202020202020207EF4
:1005C8003420202020202020202020342E30204DB0
:1005D800487A20202020353025206F6620737065EA
:1005E800630D0A005468656F7265746963616C20F5
:1005F8006D6178202020202020207E32202020209D
:10060800202020202020382E30204D487A202020FD
:100618002031303025206F6620737065632A0D0AFB
:1006280000446174617368656574204857205350AD
:1006380049206D617820207E322020202020202033
:10064800202020382E30204D487A2020202028686D
:1006580061726477617265206C696D6974290D0A2D
:10066800002A2032206379636C65732F62697420D5
:100678003D204F555420626F74682053434B2B4DD7
:100688004F534920696E2031206379636C652C20B3
:100698004F55542053434B206C6F7720696E20319F
:1006A8000D0A00202041565220414E44492F4F52F6
:1006B80049206F6E6C7920776F726B73206F6E2094
:1006C80072302D7231352C20736F204320696E6C87
:1006D800696E652061736D0D0A00202063616E27C5
:1006E800742072656163682074686973207769741F
:1006F800686F757420617373656D626C792D6C65B4
:1007080076656C20636F6E74726F6C2E0D0A002014
:10071800205075726520617373656D626C79206312
:10072800616E206D617463682068617264776172BC
:1007380065205350492065786163746C792E0D0AE1
:100748000D0A00576861742074686973206D6561CB
:100758006E733A0D0A0020202D204861726477617B
:100768007265205350492073617973202738204DD2
:10077800487A206D61782720E2809420626974624B
:10078800616E672063616E206D61746368206974AF
:100798000D0A0020202D204E6F2064656469636176
:1007A800746564207065726970686572616C206E2A
:1007B800656564656420666F7220686967682D7373
:1007C80070656564205350490D0A0020202D204390
:1007D800616E20647269766520646973706C6179F2
:1007E800732C20414443732C20534420636172646A
:1007F800732061742066756C6C2073706565640D78
:100808000A002020202066726F6D20616E792070AA
:10081800696E732C206E6F74206A75737420746807
:100828006520686172647761726520535049207051
:10083800696E730D0A0020202D204D756C74697047
:100848006C652064657669636573206F6E206469E2
:1008580066666572656E742070696E732077697458
:1008680068207A65726F2061726269747261746956
:100878006F6E0D0A003D3D3D3D3D3D3D3D3D3D3DDD
:100888003D3D3D3D3D3D3D3D3D3D3D3D3D3D3D3D90
:100898003D3D3D3D3D3D3D3D3D3D3D3D3D0D0A0020
:00000001FF
